:020000040000FA
:04000000D8EF11F034
:10060000003F065B4F666D7D077F6F777C395E79B3
:1006100071554C44525358414259737A79787776E0
:100620007574737271706F6E6D6C6B6A69686766F2
:10063000656463626139383736353433323130318D
:1006400032333435363738396162636465666768DA
:10065000696A6B6C6D6E6F70717273747576777892
:10066000797A00000450800B0D6E045004240F6E44
:1006700003AE3DEF03F03FEF03F040EF03F00F80D8
:100680000F50D8B446EF03F048EF03F05DEF03F0EE
:100690000F28D8A44EEF03F050EF03F058EF03F00B
:1006A000000E016E000E026E000E036E000E046E50
:1006B000038E000E046E65EF03F0000E016E000E57
:1006C000026E000E036E000E046E0850800B0E6E5C
:1006D0000D500E18D8B46FEF03F071EF03F072EF06
:1006E00003F00D8C085008240E6E07AE7AEF03F06D
:1006F0007CEF03F07DEF03F00E800E50D8B483EF53
:1007000003F085EF03F09AEF03F00E28D8A48BEFE7
:1007100003F08DEF03F095EF03F0000E056E000E71
:10072000066E000E076E000E086E078E000E086E35
:10073000A2EF03F0000E056E000E066E000E076EAF
:10074000000E086E0F500E5CD8B0A9EF03F0ABEFAF
:1007500003F0D2EF03F00DACB0EF03F0B2EF03F013
:10076000B4EF03F0800E0D1A0FC010F00EC00FF0A2
:1007700010C00EF001C010F005C001F010C005F06F
:1007800002C010F006C002F010C006F003C010F066
:1007900007C003F010C007F004C010F008C004F058
:1007A00010C008F0000E106E0F500EC009F00A6A5B
:1007B000095E000E0A5A0ABEE7EF03F00A5009E18B
:1007C0001A0E095CD8A0E7EF03F0E9EF03F020EF81
:1007D00004F00150021003100410D8A4F2EF03F04B
:1007E000F5EF03F0010EF6EF03F0000E106E000EB1
:1007F000016E000E026E000E036E000E046E0EC03F
:100800000FF029EF04F010A008EF04F00AEF04F055
:1008100010EF04F0D89010300109106E12EF04F0C0
:10082000D890103201A017EF04F019EF04F01AEF7E
:1008300004F0108E043404320332023201320F2AE3
:100840000E500F5CD8A027EF04F029EF04F003EF5F
:1008500004F00DBC2EEF04F030EF04F070EF04F064
:100860000F50D8A436EF04F038EF04F042EF04F054
:10087000000E016E000E026E000E036E000E046E7E
:1008800091EF05F005500126065002220750032281
:100890000850042204A04FEF04F051EF04F0FDEFE4
:1008A00004F010A056EF04F058EF04F05EEF04F0EF
:1008B000D89010300109106E60EF04F0D89010321B
:1008C00001A065EF04F067EF04F068EF04F0108E0C
:1008D000043404320332023201320F2AFDEF04F0F5
:1008E0000550015C06500258075003580450800A16
:1008F000096E0850800A0958D8B081EF04F083EFE0
:1009000004F0AEEF04F00150055C096E0250065889
:100910000A6E035007580B6E045008580C6EFF0EF9
:100920000924016EFF0E0A20026EFF0E0B20036EDB
:10093000FF0E0C20046E800E0D1A106C1050D8A4FF
:10094000A4EF04F0A6EF04F0B6EF04F0010E0126C8
:10095000000E022203220422B6EF04F00550015ECD
:100960000650025A0750035A0850045A0150021008
:1009700003100410D8A4BFEF04F0C1EF04F0F6EFA9
:1009800004F01050D8A4C7EF04F0C9EF04F0F6EF5C
:1009900004F0000E016E000E026E000E036E000EDB
:1009A000046E91EF05F0D890013602360336043616
:1009B00010AEDDEF04F0DFEF04F0E0EF04F00180B3
:1009C00010A0E5EF04F0E7EF04F0EBEF04F0D880BF
:1009D0001036EDEF04F0D89010360F50D8B4F3EF86
:1009E00004F0F5EF04F0F6EF04F00F0603AEFBEFB2
:1009F00004F0FDEF04F0D3EF04F0000E0E6E10AE25
:100A000004EF05F006EF05F01EEF05F010C009F049
:100A10007F0E0916D8B40FEF05F011EF05F015EFB2
:100A200005F0010E0E6E1EEF05F001A01AEF05F0A5
:100A30001CEF05F01EEF05F011EF05F00E50D8B4D5
:100A400024EF05F026EF05F051EF05F0010E012629
:100A5000000E02220322042204A031EF05F033EF3E
:100A600005F051EF05F001C009F002C00AF003C023
:100A70000BF004C00CF00C340C320B320A32093289
:100A800009C001F00AC002F00BC003F00CC004F072
:100A90000F28D8B44EEF05F050EF05F051EF05F0F8
:100AA0000F2A0F28D8B457EF05F059EF05F061EF82
:100AB00005F00F50D8A45FEF05F061EF05F073EF7C
:100AC00005F0000E016E000E026E000E036E000EA9
:100AD000046E0F50D8A46FEF05F071EF05F073EFBF
:100AE00005F0000E0D6E0FA078EF05F07AEF05F01F
:100AF0007DEF05F0038E7EEF05F0039ED8900F305A
:100B0000046E0DAE86EF05F088EF05F089EF05F075
:100B1000048E01C001F002C002F003C003F004C063
:100B200004F01200000E016E000E026ED8EC12F0FE
:100B300001C063F002C064F003C065F004C066F059
:100B400005C067F006C068F007C069F008C06AF029
:100B500063C009F065C00AF01CEC15F0000E0F6EC2
:100B6000000E0E6E23EC13F07F0E0E141F6E206A23
:100B700068EC13F01FC06BF020C06CF0270E166EEF
:100B8000100E156EB2EC0FF00DC013F00EC014F085
:100B9000CAEC0EF013C019F014C01AF06BC01BF0B1
:100BA0006CC01CF043EC15F019C0E3F01AC0E4F07F
:100BB000E3C013F0E4C014F0270E166E100E156E8D
:100BC000CAEC0EF013C0E3F014C0E4F00001E30738
:100BD000D8A0E407E3C01FF0E4C020F0750E216E3A
:100BE000000E226E000E246E0A0E236E5AEC0BF0DD
:100BF000000E6D6E000E6E6E000E6F6E000E706E4B
:100C00006DC001F06EC002F06FC003F070C004F060
:100C1000000E056E000E066E480E076E430E086E3F
:100C2000A8EC0CF0D8A017EF06F019EF06F01BEFB8
:100C300006F0F6EF06F0000E196EE3C001F0E4C016
:100C400002F0030E046EE80E036E0EEC0EF001507F
:100C500004EC12F0010E196E000E046E640E036EA9
:100C6000E3C001F0E4C002F00EEC0EF001C013F09E
:100C700002C014F0000E166E0A0E156ECAEC0EF0CD
:100C8000135004EC12F0020E196E000E046E0A0EE0
:100C9000036EE3C001F0E4C002F00EEC0EF001C000
:100CA00013F002C014F0000E166E0A0E156ECAEC98
:100CB0000EF0135004EC12F0030E196EE3C013F0A3
:100CC000E4C014F0000E166E0A0E156ECAEC0EF09B
:100CD000135004EC12F0EAEC09F0000E716E000EF5
:100CE000726E000E736E000E746E71C001F072C0F1
:100CF00002F073C003F074C004F0000E056E000E25
:100D0000066EC80E076E420E086EA8EC0CF0D8A056
:100D10008CEF06F08EEF06F090EF06F0C3EF06F0D2
:100D200071C001F072C002F073C003F074C004F02F
:100D3000000E056E000E066E800E076E3F0E086EEA
:100D400032EC03F001C071F002C072F003C073F026
:100D500004C074F071C001F072C002F073C003F0FF
:100D600074C004F0000E056E000E066EC80E076E0D
:100D7000420E086EA8EC0CF0D8A0C1EF06F0C3EF4D
:100D800006F090EF06F06DC001F06EC002F06FC08B
:100D900003F070C004F0000E056E000E066E800EAB
:100DA000076E3F0E086E32EC03F001C06DF002C01A
:100DB0006EF003C06FF004C070F06DC001F06EC043
:100DC00002F06FC003F070C004F0000E056E000E5C
:100DD000066E480E076E430E086EA8EC0CF0D8A005
:100DE000F4EF06F0F6EF06F01BEF06F0000E026ED1
:100DF000020E016E000E046E000E036EC3EC08F0CE
:100E0000000E026E030E016E000E046E000E036EE5
:100E1000C3EC08F0000E026E040E016E000E046EAC
:100E2000000E036EC3EC08F0000E026E050E016E9C
:100E3000000E046E000E036EC3EC08F075507618B9
:100E4000D8B425EF07F027EF07F039EF07F0775018
:100E50007618D8B42EEF07F030EF07F039EF07F02F
:100E600078507718D8A437EF07F039EF07F03BEF49
:100E700007F088EC10F075507618D8A442EF07F010
:100E800044EF07F04DEF07F077507618D8B44BEFEA
:100E900007F04DEF07F05FEF07F077507618D8A412
:100EA00054EF07F056EF07F061EF07F0785077182E
:100EB000D8A45DEF07F05FEF07F061EF07F053ECA8
:100EC00010F075507618D8A468EF07F06AEF07F0B5
:100ED0007EEF07F077507618D8A471EF07F073EF24
:100EE00007F07EEF07F078507718D8A47AEF07F074
:100EF0007CEF07F07EEF07F01EEC10F075507618CF
:100F0000D8B485EF07F087EF07F09BEF07F0775035
:100F10007618D8B48EEF07F090EF07F09BEF07F04C
:100F200078507718D8B497EF07F099EF07F09BEF58
:100F300007F04DEC11F0120002BEAAEF07F00250CC
:100F400007E1080E015CD8B0A8EF07F0AAEF07F0A0
:100F5000D4EF07F003500410D8B4B1EF07F0B3EFAB
:100F600007F0C3EF07F001C005F0010E066E052A79
:100F7000BCEF07F0D8900636052EBAEF07F0065002
:100F80009212C2EF08F001C005F0010E066E052AAC
:100F9000CCEF07F0D8900636052ECAEF07F00650C2
:100FA000FF0A9216C2EF08F002BEE2EF07F002500D
:100FB00007E1100E015CD8B0E0EF07F0E2EF07F0B8
:100FC00010EF08F003500410D8B4E9EF07F0EBEF8E
:100FD00007F0FDEF07F001C005F0F80E0526010E41
:100FE000066E052AF6EF07F0D8900636052EF4EFC8
:100FF00007F006509312C2EF08F001C005F0F80E9A
:101000000526010E066E052A08EF08F0D890063670
:10101000052E06EF08F00650FF0A9316C2EF08F0FF
:1010200002BE1EEF08F0025007E1180E015CD8B0B6
:101030001CEF08F01EEF08F04CEF08F0035004100E
:10104000D8B425EF08F027EF08F039EF08F001C019
:1010500005F0F00E0526010E066E052A32EF08F0A7
:10106000D8900636052E30EF08F006509412C2EFE5
:1010700008F001C005F0F00E0526010E066E052AE7
:1010800044EF08F0D8900636052E42EF08F00650DF
:10109000FF0A9416C2EF08F002BE5AEF08F00250A1
:1010A00007E1200E015CD8B058EF08F05AEF08F0C5
:1010B00088EF08F003500410D8B461EF08F063EF34
:1010C00008F075EF08F001C005F0E80E0526010EE6
:1010D000066E052A6EEF08F0D8900636052E6CEFE6
:1010E00008F006509512C2EF08F001C005F0E80EB6
:1010F0000526010E066E052A80EF08F0D890063608
:10110000052E7EEF08F00650FF0A9516C2EF08F094
:1011100002BE96EF08F0025007E1280E015CD8B03D
:1011200094EF08F096EF08F0C2EF08F003500410B7
:10113000D8B49DEF08F09FEF08F0B1EF08F001C0C0
:1011400005F0E00E0526010E066E052AAAEF08F04E
:10115000D8900636052EA8EF08F006509612C2EF7A
:1011600008F001C005F0E00E0526010E066E052A06
:10117000BCEF08F0D8900636052EBAEF08F00650FE
:10118000FF0A9616120002BED1EF08F0025007E1E6
:10119000080E015CD8B0CFEF08F0D1EF08F0FBEFFC
:1011A00008F003500410D8B4D8EF08F0DAEF08F0D4
:1011B000EAEF08F001C005F0010E066E052AE3EF24
:1011C00008F0D8900636052EE1EF08F006508012A0
:1011D000E9EF09F001C005F0010E066E052AF3EFF4
:1011E00008F0D8900636052EF1EF08F00650FF0AF9
:1011F0008016E9EF09F002BE09EF09F0025007E19D
:10120000100E015CD8B007EF09F009EF09F037EFD5
:1012100009F0F80E0126FF0E022203500410D8B484
:1012200014EF09F016EF09F026EF09F001C005F000
:10123000010E066E052A1FEF09F0D8900636052E1E
:101240001DEF09F006508112E9EF09F001C005F029
:10125000010E066E052A2FEF09F0D8900636052EEE
:101260002DEF09F00650FF0A8116E9EF09F002BEE2
:1012700045EF09F0025007E1180E015CD8B043EFCA
:1012800009F045EF09F073EF09F0F00E0126FF0EAB
:10129000022203500410D8B450EF09F052EF09F0C5
:1012A00062EF09F001C005F0010E066E052A5BEF42
:1012B00009F0D8900636052E59EF09F00650821233
:1012C000E9EF09F001C005F0010E066E052A6BEF8B
:1012D00009F0D8900636052E69EF09F00650FF0A8E
:1012E0008216E9EF09F002BE81EF09F0025007E132
:1012F000200E015CD8B07FEF09F081EF09F0AFEF6D
:1013000009F0E80E0126FF0E022203500410D8B4A3
:101310008CEF09F08EEF09F09EEF09F001C005F0A7
:10132000010E066E052A97EF09F0D8900636052EB5
:1013300095EF09F006508312E9EF09F001C005F0BE
:10134000010E066E052AA7EF09F0D8900636052E85
:10135000A5EF09F00650FF0A8316E9EF09F002BE77
:10136000BDEF09F0025007E1280E015CD8B0BBEFD9
:1013700009F0BDEF09F0E9EF09F0E00E0126FF0EDC
:10138000022203500410D8B4C8EF09F0CAEF09F0E4
:10139000DAEF09F001C005F0010E066E052AD3EF61
:1013A00009F0D8900636052ED1EF09F006508412C8
:1013B000E9EF09F001C005F0010E066E052AE3EF22
:1013C00009F0D8900636052EE1EF09F00650FF0A25
:1013D00084161200000E026E180E016E000E046ECE
:1013E000000E036EC3EC08F0000E026E190E016EC3
:1013F000000E046E000E036EC3EC08F0000E026EC9
:101400001A0E016E000E046E000E036EC3EC08F09F
:10141000000E026E1B0E016E000E046E000E036EB7
:10142000C3EC08F0000E086E000E076EB1EC12F06F
:1014300086EF0AF0010EF025F66EF76A060EF72227
:101440000800F550076E086AB1EC12F0000E026E4B
:10145000180E016E000E046E010E036EC3EC08F050
:10146000010E0001F16FA4EF0AF0010EEF25F66EF8
:10147000F76A060EF7220800F550076E086AB1EC0D
:1014800012F0000E026E190E016E000E046E010EB7
:10149000036EC3EC08F0020E0001F16FA4EF0AF036
:1014A000010EEE25F66EF76A060EF7220800F550DB
:1014B000076E086AB1EC12F0000E026E1A0E016E91
:1014C000000E046E010E036EC3EC08F0030E000163
:1014D000F16FA4EF0AF0010EED25F66EF76A060E25
:1014E000F7220800F550076E086AB1EC12F0000E02
:1014F000026E1B0E016E000E046E010E036EC3EC35
:1015000008F0000E0001F16FA4EF0AF00001F151A4
:101510000A6E0B6A0B50000AD8B491EF0AF081EF03
:101520000AF00A50000AD8B41AEF0AF0010AD8B437
:1015300035EF0AF0030AD8B450EF0AF0010AD8B424
:101540006BEF0AF081EF0AF0120002BEB3EF0AF06F
:10155000025007E1080E015CD8B0B1EF0AF0B3EF1A
:101560000AF0C7EF0AF001C003F0010E046E032A6F
:10157000BCEF0AF0D8900436032EBAEF0AF00450FC
:101580008014056E0550016E026A59EF0BF002BE21
:10159000D5EF0AF0025007E1100E015CD8B0D3EF8E
:1015A0000AF0D5EF0AF0EBEF0AF001C003F0F80EF5
:1015B0000326010E046E032AE0EF0AF0D8900436E9
:1015C000032EDEEF0AF004508114056E0550016E03
:1015D000026A59EF0BF002BEF9EF0AF0025007E180
:1015E000180E015CD8B0F7EF0AF0F9EF0AF00FEF30
:1015F0000BF001C003F0F00E0326010E046E032A67
:1016000004EF0BF0D8900436032E02EF0BF00450D9
:101610008214056E0550016E026A59EF0BF002BE8E
:101620001DEF0BF0025007E1200E015CD8B01BEF5C
:101630000BF01DEF0BF033EF0BF001C003F0E80EE1
:101640000326010E046E032A28EF0BF0D89004360F
:10165000032E26EF0BF004508314056E0550016E27
:10166000026A59EF0BF002BE41EF0BF0025007E1A6
:10167000280E015CD8B03FEF0BF041EF0BF057EFB5
:101680000BF001C003F0E00E0326010E046E032AE6
:101690004CEF0BF0D8900436032E4AEF0BF00450B9
:1016A0008414056E0550016E026A59EF0BF0016853
:1016B0000268120024BE66EF0BF0245009E1020E0E
:1016C000235CD8A066EF0BF068EF0BF076EF0BF021
:1016D00024BE74EF0BF0245009E1250E235CD8A042
:1016E00074EF0BF076EF0BF07EEF0BF021C0D9FF1B
:1016F00022C0DAFF000EDF6E08EF0CF021C02CF0E4
:1017000022C02DF021C02AF022C02BF01FC028F0EB
:1017100020C029F01FC001F020C002F023C003F058
:1017200024C004F00EEC0EF001C01FF002C020F047
:101730001FC019F020C01AF023C01BF024C01CF0F9
:1017400043EC15F01B0E256E060E266E1950255E15
:101750001A50265A2850252629502622230E25269F
:10176000000E262225C0F6FF26C0F7FF2CC0D9FFA9
:101770002DC0DAFF0800F5CFDFFF2C4A2D2A1F50BD
:101780002010D8A4C6EF0BF0C8EF0BF086EF0BF0DB
:1017900029BECFEF0BF0CDEF0BF0D7EF0BF02CC045
:1017A000D9FF2DC0DAFF2D0EDF6E2C4A2D2A2CC05A
:1017B000D9FF2DC0DAFF000EDF6E2C06D8A02D0653
:1017C000FDEF0BF02CC0D9FF2DC0DAFFDF50276EE4
:1017D0002AC0D9FF2BC0DAFF2CC0E1FF2DC0E2FFE9
:1017E000DFCFE7FF2C06D8A02D062AC0D9FF2BC0DB
:1017F000DAFF27C0DFFF2A4A2B2A2C502A5C2D5003
:101800002B58D8A006EF0CF008EF0CF0E2EF0BF02D
:101810001200000E0001E86F000EE76F000E0E6E62
:10182000000E0D6E0EBE1EEF0CF00E5009E1050EFF
:101830000D5CD8A01EEF0CF020EF0CF022EF0CF0A6
:1018400085EF0CF00DC00AF0030E0A26010E0B6E98
:10185000000E0C6E0A2A30EF0CF0D8900B360C36C6
:101860000A2E2DEF0CF00BC007F00CC008F0B1EC05
:1018700012F0000E026E0A0E016EA5EC0AF0015085
:101880000210D8B446EF0CF048EF0CF05CEF0CF00F
:101890000DC00AF0010E0B6E000E0C6E0A2A54EFFA
:1018A0000CF0D8900B360C360A2E51EF0CF00B5082
:1018B0000001E7130C50E813000E026E090E016ED2
:1018C000A5EC0AF001500210D8B469EF0CF06BEFF0
:1018D0000CF081EF0CF00DC00AF0050E0A26010E87
:1018E0000B6E000E0C6E0A2A79EF0CF0D8900B36B6
:1018F0000C360A2E76EF0CF00B500001E7130C505B
:10190000E8130D4A0E2A12EF0CF00001E751E51919
:1019100007E1E851E619D8A490EF0CF092EF0CF033
:1019200095EF0CF07F069BEF0CF0010E7F6EE7C089
:10193000E5F0E8C0E6F07F50D8A4A1EF0CF0A3EFEB
:101940000CF0A7EF0CF0E5C0E9F0E6C0EAF01200F9
:10195000000E0114096E000E02140A6E800E0314AC
:101960000B6E7F0E04140C6E09500A100B100C1035
:10197000D8A4BDEF0CF0BFEF0CF0C7EF0CF0000ED9
:10198000016E000E026E000E036E000E046E000E5D
:101990000514096E000E06140A6E800E07140B6EF5
:1019A0007F0E08140C6E09500A100B100C10D8A4EE
:1019B000DCEF0CF0DEEF0CF0E6EF0CF0000E056E45
:1019C000000E066E000E076E000E086E04AEEBEF02
:1019D0000CF0EDEF0CF0F6EF0CF0016C021ED8B03D
:1019E000022A031ED8B0032A800E045608AEFBEF6D
:1019F0000CF0FDEF0CF006EF0DF0056C061ED8B0F4
:101A0000062A071ED8B0072A800E0856000E011AB3
:101A1000000E021A000E031A800E041A000E051A98
:101A2000000E061A000E071A800E081A0550015CF7
:101A3000065002580750035808500458D8B023EFF6
:101A40000DF025EF0DF028EF0DF0D89029EF0DF0F7
:101A5000D8801200484F4C59204D4F4C5920594FB7
:101A6000552057494E20325800594F55204C4F535E
:101A7000452E2E2E000000000000000000544845B6
:101A80002047414D4521000000000000000041704A
:101A90006F7374616E646F3A202D3130303A4F208D
:101AA0000000000000000000000000007265636597
:101AB0006265753A202B31303020004F4D47205958
:101AC0004F552057494E2031780072656365626535
:101AD000753A202B32303020004F4D473A2B3530AD
:101AE00030212121200000004F4D4720594F552023
:101AF000484954204954007065726465753A202D38
:101B0000313030000000594F55204C4F53450000F4
:101B1000000000000047414D45204F56455200004F
:101B2000000000004433206573712053616C646FC2
:101B30000000004434206573712041706F7374613C
:101B40000000000E7E6E100E7D6E000E016E000E07
:101B5000026ED8EC12F001C0D1F002C0D2F003C086
:101B6000D3F004C0D4F005C0D5F006C0D6F007C04D
:101B7000D7F008C0D8F0D1C009F0D3C00AF01CECEF
:101B800015F05CEC12F070EC0EF038EC14F00F0E67
:101B900065EC15F0BDEC10F07DEC11F009EC0CF0EB
:101BA00074EC15F07D50011809E17E500218D8B48C
:101BB000DCEF0DF0DEEF0DF0CEEF0DF074EC15F074
:101BC00001C07DF002C07EF07DA2E9EF0DF0EBEFE9
:101BD0000DF0F2EF0DF0010E65EC15F022EC0FF0B8
:101BE0007DEC11F07DA0F7EF0DF0F9EF0DF000EFB7
:101BF0000EF0010E65EC15F076EC0FF07DEC11F0B7
:101C00007DA405EF0EF007EF0EF0CEEF0DF0010E04
:101C100065EC15F0CEEF0DF000EF00F0000E066E53
:101C200004BE17EF0EF015EF0EF01DEF0EF0036C73
:101C3000041ED8B0042A010E066E02BE24EF0EF078
:101C400022EF0EF02AEF0EF0016C021ED8B0022A2D
:101C5000010E061A000E086E000E076E03500410E7
:101C6000D8B435EF0EF037EF0EF05FEF0EF0010E47
:101C7000056E3FEF0EF0D89003360436052A04AE09
:101C800044EF0EF046EF0EF03BEF0EF0D890073623
:101C900008360350015C04500258D8A052EF0EF0F1
:101CA00054EF0EF059EF0EF00350015E0450025A4B
:101CB0000780D89004320332052E46EF0EF006500E
:101CC000D8B465EF0EF067EF0EF06BEF0EF0076C17
:101CD000081ED8B0082A07C001F008C002F01200A0
:101CE000000E026E1C0E016E000E046E000E036EDE
:101CF0009CEC07F0000E026E1D0E016E000E046ECD
:101D0000000E036E9CEC07F0AAEC13F0000E026EBE
:101D10000F0E016E82EC14F0000E0B6E000E0A6EB8
:101D2000030E30EC15F0000E026E050E016E82EC13
:101D300014F0000E0B6E000E0A6E030E30EC15F060
:101D4000000E026EA00E016E7AEC15F0000E0B6E06
:101D5000000E0A6E030E30EC15F0000E026EA00E9F
:101D6000016E7AEC15F0000E0B6E000E0A6E020E7C
:101D700030EC15F0000E026E0A0E016E82EC14F0CB
:101D8000280E65EC15F00C0E65EC15F0010E65ECF7
:101D900015F01200000E186E14BED3EF0EF0D1EF46
:101DA0000EF0D9EF0EF0136C141ED8B0142A010EE9
:101DB000186E16BEE0EF0EF0DEEF0EF0E4EF0EF060
:101DC000156C161ED8B0162A15501610D8B4EBEFA5
:101DD0000EF0EDEF0EF011EF0FF0010E176EF5EFB4
:101DE0000EF0D89015361636172A16AEFAEF0EF00A
:101DF000FCEF0EF0F1EF0EF01550135C1650145876
:101E0000D8A005EF0FF007EF0FF00BEF0FF0155014
:101E1000135E1650145AD89016321532172EFCEF56
:101E20000EF01850D8B417EF0FF019EF0FF01DEFA8
:101E30000FF0136C141ED8B0142A13C013F014C082
:101E400014F012009C0E796EFF0E7A6EB1C07BF01A
:101E5000B2C07CF079507B267A507C227CBE3BEF6E
:101E60000FF07C5006E17B04D8B039EF0FF03BEF68
:101E70000FF03FEF0FF0EDEC10F075EF0FF021EEEB
:101E800049F010EEB3F00E0EDBCFE3FFE806FCE204
:101E900021EE3AF010EEC2F00E0EDBCFE3FFE806C3
:101EA000FCE2800E65EC15F0B30E0F6E000E106EA6
:101EB000C9EC13F0C00E65EC15F0C20E0F6E000EEB
:101EC000106EC9EC13F000019C0EB127FF0EB22377
:101ED000000E956E000E836E9AEC14F0B1EC14F0C7
:101EE00092EC05F0010E65EC15F01200010E65ECA8
:101EF00015F020EEAAF010EE2EF0060EDBCFE3FF79
:101F0000E806FCE220EE35F0090EDE6AE806FDE2A6
:101F1000B1C01FF0B2C020F0350E216E000E226E4F
:101F2000000E246E0A0E236E5AEC0BF0800E65EC48
:101F300015F02E0E0F6E000E106EC9EC13F0C00ED1
:101F400065EC15F0350E0F6E000E106EC9EC13F037
:101F500046EC13F046EC13F046EC13F0010E65EC82
:101F600015F01200F2C001F0F3C002F0F4C003F06B
:101F7000F5C004F02D0E056E7F0E066E950E076EF1
:101F80004C0E086EE9EC0FF0010E01240001F26F17
:101F9000000E0220F36F000E0320F46F000E0420E9
:101FA000F56FF2C00FF0F3C010F0F4C011F0F5C0FF
:101FB00012F0120EE1EF0FF0D890123211321032FF
:101FC0000F32E82EDCEF0FF00FC00DF010C00EF056
:101FD0001200000E096E000E0A6E000E0B6E000E4F
:101FE0000C6E01A0F6EF0FF0F8EF0FF000EF10F01D
:101FF0000550092606500A2207500B2208500C22D1
:10200000D8900536063607360836D89004320332A3
:10201000023201320150021003100410D8A413EF51
:1020200010F015EF10F0F1EF0FF009C001F00AC049
:1020300002F00BC003F00CC004F0120021EE94F08B
:1020400010EE3FF00E0EDBCFE3FFE806FCE221EEE0
:1020500085F010EE4EF00E0EDBCFE3FFE806FCE25B
:10206000800E65EC15F03F0E0F6E000E106EC9EC81
:1020700013F0C00E65EC15F04E0E0F6E000E106ED4
:10208000C9EC13F046EC13F046EC13F046EC13F0F9
:10209000010E65EC15F00001F40EB127010EB2231C
:1020A00076EC0FF0120021EE00F010EE3FF0140E6F
:1020B000DBCFE3FFE806FCE221EE76F010EE54F011
:1020C0000E0EDBCFE3FFE806FCE2800E65EC15F0B8
:1020D0003F0E0F6E000E106EC9EC13F0C00E65ECD3
:1020E00015F0540E0F6E000E106EC9EC13F046EC96
:1020F00013F046EC13F046EC13F0010E65EC15F00E
:1021000000012C0EB127010EB22376EC0FF0120065
:1021100021EE67F010EE3FF00E0EDBCFE3FFE80696
:10212000FCE221EE58F010EE4EF00E0EDBCFE3FF96
:10213000E806FCE2800E65EC15F03F0E0F6E000E17
:10214000106EC9EC13F0C00E65EC15F04E0E0F6E5C
:10215000000E106EC9EC13F046EC13F046EC13F0D1
:1021600046EC13F0010E65EC15F0C80E0001B12726
:10217000000EB22376EC0FF0120020EE9EF010EE6F
:1021800023F00B0EDBCFE3FFE806FCE221EE29F0A3
:1021900010EE12F0100EDBCFE3FFE806FCE2800E3B
:1021A00065EC15F0230E0F6E000E106EC9EC13F0E7
:1021B000C00E65EC15F0120E0F6E000E106EC9EC1D
:1021C00013F046EC13F046EC13F046EC13F046EC3B
:1021D00013F0010E65EC15F0120021EEC1F010EEC7
:1021E00053F00E0EDBCFE3FFE806FCE221EE15F024
:1021F00010EE3FF0130EDBCFE3FFE806FCE2800EAB
:1022000065EC15F0530E0F6E000E106EC9EC13F056
:10221000C00E65EC15F03F0E0F6E000E106EC9EC8F
:1022200013F046EC13F046EC13F046EC13F0010EFD
:1022300065EC15F076EC0FF012000A6E0A50D8B477
:1022400024EF11F026EF11F028EF11F0FEEC12F060
:10225000000E0B6E09BE2FEF11F032EF11F0010EE0
:1022600033EF11F0000E30EC12F0D89009360B2A43
:10227000070E0B643EEF11F040EF11F02AEF11F062
:1022800051EC14F00850D8B448EF11F04AEF11F0B7
:102290004CEF11F06AEC14F0120021EEB2F010EEE7
:1022A0003FF00E0EDBCFE3FFE806FCE221EEA3F0E9
:1022B00010EE4EF00E0EDBCFE3FFE806FCE2800EE0
:1022C00065EC15F03F0E0F6E000E106EC9EC13F0AA
:1022D000C00E65EC15F04E0E0F6E000E106EC9ECC0
:1022E00013F046EC13F046EC13F046EC13F0010E3D
:1022F00065EC15F076EC0FF01200010E65EC15F0B0
:1023000021EEDFF010EE12F00E0EDBCFE3FFE80659
:10231000FCE221EED0F010EE21F00E0EDBCFE3FF59
:10232000E806FCE2800E65EC15F0120E0F6E000E52
:10233000106EC9EC13F0C00E65EC15F0210E0F6E97
:10234000000E106EC9EC13F046EC13F046EC13F0DF
:1023500046EC13F012000D6E0DC00CF00C3A0F0E8F
:102360000C160C50076E086AB1EC12F0000E026EEB
:102370001D0E016E0AC003F00BC004F0C3EC08F0A0
:1023800089EC13F00DC00CF00F0E0C160C50076EFC
:10239000086AB1EC12F0000E026E1D0E016E0AC04A
:1023A00003F00BC004F0C3EC08F089EC13F012004A
:1023B000540EF66E1A0EF76E000EF86E01EE00F077
:1023C00010EEEEF00900F5CFEEFFE550E150FAE136
:1023D0003C0EF66E280EF76E000EF86E00EE80F0E2
:1023E00010EE33F00900F5CFEEFFE550E150FAE1D1
:1023F00000EED9F0190EEE6AE806FDE17F6A000EE4
:10240000F86E0001A1EF0DF01A6E1950D8A40BEF71
:1024100012F00DEF12F00FEF12F01AC0F0F01904E5
:10242000D8A415EF12F017EF12F019EF12F01AC03E
:10243000EFF0020E1918D8A420EF12F022EF12F0DC
:1024400024EF12F01AC0EEF0030E1918D8A42BEFE7
:1024500012F02DEF12F02FEF12F01AC0EDF0120073
:10246000076E0750D8B437EF12F039EF12F03DEF96
:1024700012F0E6EC13F03FEF12F0C8EC14F079EC38
:1024800015F002EC14F00009D8B449EF12F04BEF4C
:1024900012F041EF12F00750D8B451EF12F053EFA1
:1024A00012F055EF12F0E6EC13F079EC15F0DDECDC
:1024B00014F079EC15F01200000E026E180E016E89
:1024C000000E046E000E036E9CEC07F0000E026E10
:1024D000190E016E000E046E000E036E9CEC07F0E8
:1024E000000E026E1A0E016E000E046E000E036ED8
:1024F0009CEC07F0000E026E1B0E016E000E046EC7
:10250000000E036E9CEC07F0AAEC13F012000A6EAA
:10251000000E0D6E000E0C6E000E0B6E51EC14F0E2
:10252000096E0D500D2409100D6E0B4A0C2A0C502B
:1025300009E1080E0B5CD8A0A0EF12F0A2EF12F098
:102540008EEF12F00A5030EC12F00850D8B4ABEF16
:1025500012F0ADEF12F0AFEF12F06AEC14F00D5084
:102560001200000E026E080E016E000E046E000EC8
:10257000036EC3EC08F0000E096E000E026E1E0E14
:10258000016E800E0714036E046AC3EC08F007ECBA
:1025900015F0D89007360836092A070E0964D3EFDC
:1025A00012F0D5EF12F0BDEF12F0F2EC14F01200C1
:1025B00001500210D8B4DFEF12F0E1EF12F0F5EFA6
:1025C00012F001C0D9FF02C0DAFFFF0EDE6EFF0E6F
:1025D000DE6EFF0EDE6EFF0EDE6EFF0EDE6EFF0E97
:1025E000DE6EFF0EDE6EFF0EDD6E016802680368B0
:1025F0000468056806680768086812000001EB5166
:10260000D8B405EF13F007EF13F017EF13F0E6EC73
:1026100013F079EC15F002EC14F00009D8B413EFC4
:1026200013F015EF13F00BEF13F079EC15F0E6EC67
:1026300013F0C8EC14F079EC15F0DDEC14F0010E99
:102640000001EB6F1200000E086ED00E096E010E35
:102650001DEC11F0000E086E0EC009F0000E1DEC0E
:1026600011F0000E086ED10E096E010E1DEC11F076
:10267000010E086E010E87EC12F0106E1050116EF4
:10268000126A11C00EF012C00FF01200000E016E9F
:10269000000E026E022A0228D8A451EF13F053EF65
:1026A00013F04AEF13F0000E026E022A0228D8A49B
:1026B0005CEF13F05EEF13F055EF13F0012A0128E1
:1026C000D8A465EF13F067EF13F048EF13F0120092
:1026D0000F0E1F14216E000E2014226E000E046EC9
:1026E000100E036E1FC001F020C002F00EEC0EF0C1
:1026F00001C019F002C01AF0000E1C6E0A0E1B6E0B
:1027000043EC15F0215019241F6E22501A20206E20
:102710001200000E026E1C0E016E000E046E010E01
:10272000036EC3EC08F0000E026E050E016E7AEC2B
:1027300015F0000E026E1C0E016E000E046E000EEF
:10274000036EC3EC08F0000E026E050E016E7AEC0B
:1027500015F01200000E026E1F0E016E000E046EC8
:10276000000E036E9CEC07F0000E026E080E016E68
:10277000000E046E000E036E9CEC07F0000E026E5D
:102780001E0E016E000E046E000E036E9CEC07F030
:102790001200000E116ED7EF13F011500F24D96EF6
:1027A000000E1020DA6EDF5056EC15F0112A115091
:1027B0000F24D96E000E1020DA6EDF50D8A4E3EF9C
:1027C00013F0E5EF13F0CDEF13F01200000E026EE0
:1027D0000C0E016E000E046E010E036E9CEC07F0F1
:1027E000000E026E0C0E016EA5EC0AF001500210F4
:1027F000D8A4FDEF13F000EF14F0010E01EF14F078
:10280000000E1200000E026E0B0E016E000E046E22
:10281000010E036E9CEC07F0000E026E0B0E016EB3
:10282000A5EC0AF001500210D8A419EF14F01CEF27
:1028300014F0010E1DEF14F0000E12004147554533
:102840004E54417C21000000000000566F6365205B
:102850006163686120717565000057656C636F6D19
:0F2860006520746F000053616C646F3A208A0228
:10287000AAEC13F0000E026E0A0E016E000E046E3A
:10288000010E036E9CEC07F0000E026E090E016E45
:10289000000E046E010E036E9CEC07F00C0EC16E70
:1028A0001200E6EC13F079EC15F002EC14F00009DC
:1028B000D8B45DEF14F05FEF14F055EF14F0E6ECD0
:1028C00013F0076E79EC15F0DDEC14F079EC15F0EF
:1028D00007501200C8EC14F079EC15F002EC14F07B
:1028E0000009D8B476EF14F078EF14F06EEF14F01E
:1028F00079EC15F0E6EC13F079EC15F0000E000120
:10290000EB6F1200000E056E000E046E8AEF14F0DD
:10291000044A052A0150045C0550800A036E0250E7
:10292000800A0358D8A097EF14F099EF14F088EFBD
:1029300014F0120046EC13F0810E046E000E036ECC
:1029400046EC13F004C083FF04500424046E032AF1
:10295000070E0364AEEF14F0B0EF14F0A0EF14F024
:10296000120046EC13F0800E046E000E036E46EC6F
:1029700013F004C083FFD8900430046E032A070EBE
:102980000364C5EF14F0C7EF14F0B7EF14F01200B2
:10299000000E026E0C0E016E000E046E000E036E31
:1029A0009CEC07F0000E026E0C0E016E000E046E21
:1029B000000E036EC3EC08F01200000E026E0B0E48
:1029C000016E000E046E000E036E9CEC07F0000E0C
:1029D000026E0B0E016E000E046E000E036EC3EC51
:1029E00008F01200000E026E1F0E016E000E046E43
:1029F000010E036EC3EC08F0000E026E1F0E016E96
:102A0000000E046E000E036EC3EC08F01200000E00
:102A1000026E080E016E000E046E010E036EC3EC12
:102A200008F0000E026E080E016E000E046E000E1D
:102A3000036EC3EC08F01200FF0E0B6EFF0E0C6E5F
:102A400009C00DF00AC00EF00B500D260C500E22DE
:102A50000DC0F2F00EC0F3F00001F46BF56B120044
:102A60000C6E0CC007F0086AB1EC12F0000E026E9A
:102A70001D0E016E0AC003F00BC004F0C3EC08F099
:102A800089EC13F0120019501B02F3CF1DF0F4CFA4
:102A90001EF019501C02F3501E261A501B02F35050
:102AA0001E261DC019F01EC01AF012000E6E000E78
:102AB0000B6E010E0A6E0E50ABEC11F0000E026EA2
:102AC000500E016E7AEC15F012000E6E000E0B6EB9
:102AD000000E0A6E0E50ABEC11F0000E026E020EEC
:102AE000016E82EC14F01200E9C001F0EAC002F0BD
:062AF000120012001200AA
:020000040020DA
:08000000FFFFFFFFFFFFFFFF00
:020000040030CA
:0E000000FF027100FF8380FF0FC00FE00F4072
:00000001FF
